:020000040001F9
:10A00000081B002095A10100AFA10100B1A1010032
:10A010000000000000000000000000000000000040
:10A02000000000000000000000000000B3A10100DB
:10A030000000000000000000B5A10100B7A1010070
:10A04000B9A10100FDA5010011AD0100B9A10100F8
:10A05000B9A1010000000000B9A10100B9A10100EF
:10A0600051AC0100B9A10100B9A10100B9A10100E1
:10A07000B9A10100B9A10100B9A10100B9A1010074
:10A08000B9A10100B9A10100B9A10100B9A1010064
:10A09000B9A10100B9A10100B9A10100B9A1010054
:10A0A000B9A10100B9A101000000000000000000FA
:10A0B00000000000000000000000000000000000A0
:10A0C00000F016F800F056F84E544E323038534334
:10A0D0004631315630332E35000000004E544E329A
:10A0E000303850434231315630310000000000001A
:10A0F0000CA030C8083824182D18A246671EAB469D
:10A1000054465D46AC4201D100F034F87E460F3E25
:10A110000FCCB6460126334200D0FB1AA246AB460E
:10A1200033431847402A0000602A0000103A02D347
:10A1300078C878C1FAD8520701D330C830C101D5E8
:10A1400004680C60704700000023002400250026EE
:10A15000103A01D378C1FBD8520700D330C100D5E3
:10A160000B6070471FB50098019900F08EF81FBD75
:10A1700010B510BD00F009F91146FFF7F3FF00F02C
:10A18000DFFF00F021F903B4FFF7F2FF03BC00F09A
:10A1900051F9000003210C4802680A4302600B4891
:10A1A00002680A4302600A4880470A480047FEE7FF
:10A1B000FEE7FEE7FEE7FEE7FEE700000648074988
:10A1C000074A084B70470000240500405405004032
:10A1D000EDAB0100C1A00100080B0020081B00200E
:10A1E000081300200813002070B5064600F030F870
:10A1F000056830460B30C408E400B44201D80020A2
:10A2000070BD68682A46002818D00168A14211D3A1
:10A210000B46214608318B4208D3436801194B6035
:10A2200003681B1B0B605160046001E041685160D2
:10A23000001D70BD024640680028E6D12146284630
:10A2400000F00EF80028DCD170BD704770477047F1
:10A250000048704790000020704770477047704773
:10A2600038B504460A4600206946C046C046002864
:10A2700005D002462046009900F066F8012038BD5E
:10A2800010B5012000F07AF810BDF8B5C046C04600
:10A29000054600200C461020C0460646A819A042DC
:10A2A0000DD9324669460020C046C046070001D19C
:10A2B00000F064F80098A04200D00546C419FFF7EA
:10A2C000C7FFF61D07460560F008C000461928467E
:10A2D00000F008F8B44204D031463868A21B00F000
:10A2E00033F8F8BD002101604160806070471020A4
:10A2F000704770B50446051FFFF7AAFF0068002CE1
:10A300001AD0446801E020466468002C01D0AC42B9
:10A31000F9D301680A18AA4204D12A6805468918A7
:10A32000016000E0456028684119A14205D16168DB
:10A33000696021684018286070BD6C6070BD0000C5
:10A34000004870478800002010B50346406801E0CF
:10A3500003464068002801D08842F9D31868C31822
:10A360008B4206D0CB1CD808C000001D411A521ADF
:10A370000146081D0A60FFF7BCFF10BD10B500F0D4
:10A3800031F800F029F810BD70477546FFF7D8FF87
:10A39000AE46050069465346C008C000854618B061
:10A3A00020B5FFF70BFF60BC00274908B646002622
:10A3B000C0C5C0C5C0C5C0C5C0C5C0C5C0C5C0C575
:10A3C000403D49008D46704710B50446C046C04622
:10A3D0002046FFF7D8FE10BD10B5002801D000F0D0
:10A3E00029F810BD10B5012805D0002103A000F008
:10A3F00027F8012010BD09A1F8E700005349475292
:10A40000544D454D3A204F7574206F662068656144
:10A4100070206D656D6F7279000000003A2048650C
:10A420006170206D656D6F727920636F72727570E7
:10A430007465640001491820ABBEFEE726000200E7
:10A4400070B505460C460A2000E06D1C00F012F8BD
:10A45000002D06D028780028F7D102E0641C00F017
:10A4600009F8002C02D020780028F7D10A2000F04B
:10A4700001F870BD08B5694608700320ABBE08BD81
:10A48000C206D20E01219140014A116070470000BE
:10A4900000E100E010B5002819DA1A4A03071B0F83
:10A4A000083B9B089B00D2588307DC0EFF23A34088
:10A4B0009A438B071B0E8407E40EA3401A43114BEB
:10A4C0000407240F083CA408A4001A5118E00E4AFF
:10A4D00003231B02D21883089B00D2588307DC0E8B
:10A4E000FF23A3409A438B071B0E8407E40EA3406F
:10A4F0001A43054B032424021B198408A4001A5193
:10A5000010BD00001CED00E000E100E010B50028E7
:10A5100019DA1A4A03071B0F083B9B089B00D25805
:10A520008307DC0EFF23A3409A438B071B0E84078F
:10A53000E40EA3401A43114B0407240F083CA4085F
:10A54000A4001A5118E00E4A03231B02D2188308F4
:10A550009B00D2588307DC0EFF23A3409A438B074E
:10A560001B0E8407E40EA3401A43054B0324240268
:10A570001B198408A4001A5110BD00001CED00E056
:10A5800000E100E010B5002819DA1A4A03071B0F92
:10A59000083B9B089B00D2588307DC0EFF23A34097
:10A5A0009A438B071B0E8407E40EA3401A43114BFA
:10A5B0000407240F083CA408A4001A5118E00E4A0E
:10A5C00003231B02D21883089B00D2588307DC0E9A
:10A5D000FF23A3409A438B071B0E8407E40EA3407E
:10A5E0001A43054B032424021B198408A4001A51A2
:10A5F00010BD00001CED00E000E100E0F0B587B008
:10A60000FE48C06801287DD10020FC49C860FC4894
:10A610000078032856D1FB48007802280AD1FA486E
:10A620008079012805D10020F8490870052101F042
:10A63000DDF95BE2F3480078032803D10120F449F7
:10A64000086053E2EF4800780028F2D1F148007822
:10A65000012810D1132000F0F1FD0521002001F0A8
:10A66000C5F90020E94908700120EB490870002075
:10A67000EA4908703AE2E7480078022817D1E7482B
:10A6800001780078401CE54A107003290BDC132088
:10A6900000F0DCFD05220021042001F0C7F90020B4
:10A6A000DA49087022E20320DB4908701EE2132019
:10A6B00000F0C4FD4F21002001F098F90120D3499A
:10A6C000087013E2CE4800780228B2D1D44800685E
:10A6D0000028AED000200690059009E0D1490598E9
:10A6E000085C0699484006900598401CC0B2059049
:10A6F00005982028F2DB069800289AD1C3480078F4
:10A70000002800E0F9E17DD1BE480078022831D16F
:10A71000C4488078BC492039097888422AD1C14888
:10A72000C078B94920394978884223D1BD48007999
:10A73000B5492039897888421CD1BA484079B24954
:10A740002039C978884215D1AF488079012811D1C4
:10A75000AD484079012807DA0121AB480171202278
:10A76000B0491C3800F03EFCA7484079401CC1B2FB
:10A77000A5484171AB4840780A2108400A2891D188
:10A78000002004900390A7488078A7490978884260
:10A7900015D1A448C078A449497888420FD1A1486E
:10A7A0000079A1498978884209D19E4840799E491B
:10A7B000C978884203D101200490039011E09948A0
:10A7C0008078FF280DD19748C078FF2809D1954897
:10A7D0000079FF2805D193484079FE2801DB01204C
:10A7E00004900498002811D00398029001208F490A
:10A7F00008708F488068402802D201208D49087077
:10A80000884800E003E0029900F08CFD6EE17F488B
:10A8100000780128FAD17B480078012873D181485B
:10A820008078FF286FD07F488078FE28FAD00026F5
:10A830003C242FE0300130187F49085CFF2802D10A
:10A84000B44200DB3446300130187B49085C75495E
:10A85000897888421CD130013018774940184078F7
:10A860007049C978884213D13001301872494018B4
:10A8700080786C49097988420AD1300130186E49D4
:10A880004018C07867494979884201D1344603E0CD
:10A89000701CC6B23C2ECDDB00BF3C2CB6DA3C2E81
:10A8A0004CDA6048807821016118634A50545D4851
:10A8B000C07821016118891848705A48007921012F
:10A8C00061188918887057484079210161188918E2
:10A8D000C8705448007A45066D0E52488079C0070A
:10A8E000C00F002801D080200543200120185249C4
:10A8F000401845714B48417A200120184E4A801873
:10A90000817100250CE065E0284610304549095C5E
:10A9100020012018484A8018C01D4155681CC5B246
:10A920000A2DF1DB20012018434940180079401C12
:10A9300021016118404A89180871D7E039488078A8
:10A94000210161183C4A50543648C07821016118F1
:10A950008918487033480079210161188918887076
:10A9600030484079210161188918C8702D48007A53
:10A9700045066D0E2B488079C007C00F002801D016
:10A9800080200543200120182B4940184571254897
:10A99000417A20012018284A8018817100250BE097
:10A9A000284610301F49095C20012018224A8018CF
:10A9B000C01D4155681CC5B20A2DF1DB20012018CD
:10A9C0001D4940180079401C210161181A4A891854
:10A9D00008718BE00B48007802287DD111488078FF
:10A9E000094920390978884276D10E48C07806494D
:10A9F00020394978884279D10A481FE00011004087
:10AA0000630000204C0000202006002032000020BF
:10AA100000100040330000203400002062000020BD
:10AA20000014004068000020350000203B0000209A
:10AA3000401500403C00002004020020007930490D
:10AA40008978884252D12F4840792D49C978884267
:10AA50004CD12C488079802848D10A202949487057
:10AA600027480078887026484078C8702448807845
:10AA700008712348C0784871002088712248C07945
:10AA8000C8710020087248728872C8720C2713209F
:10AA900001900AE01D480199405C1A49C855781C8C
:10AAA000C7B20198401CC0B20190202FF2DB0027F2
:10AAB0000120019007E013490198085C4740019884
:10AAC000401CC0B2019001982028F4DB0D480770AB
:10AAD00005220021042000E008E000F0A7FF00208C
:10AAE0000B4908700121064820308171094800781F
:10AAF000022802D101200849886007B0F0BD00009B
:10AB000000060020680000203C06002052060020BD
:10AB100032000020630000200010004010B500F05B
:10AB20000DFF0F480F49486000200F49C860401EC4
:10AB30000E49886008464068082108430B49486070
:10AB40000120012181400A4A116000BF0221FFF764
:10AB5000DDFC012001218140064A116000BF10BDCB
:10AB60006800002000150040001100400013004064
:10AB700080E200E000E100E0F7B582B00F46164643
:10AB8000394671430846FFF72FFB0190002410E07F
:10AB900000250AE002980178220101981018415519
:10ABA0000298401C0290681CC5B2B542F2DB601CE2
:10ABB000C4B2BC42ECDB002412E0002508E0210115
:10ABC00001980818405DFF2800D003E0681CC5B25A
:10ABD000B542F4DB00BFB54200DB03E0601CC4B249
:10ABE000BC42EADB00BF204605B0F0BD10B500F066
:10ABF00047FA002805D0104810494860C81310498A
:10AC0000886100F021FA002802D001200D498860F7
:10AC100000F06CFA00280ED00B480068012807D01D
:10AC20000A480949086000BF074800680128FBD1AD
:10AC3000C0200549486110BDDFFF07C00005004086
:10AC4000006C00400006004000EC064075930000D8
:10AC500013480068002822D012480078401C11498F
:10AC6000087008460078142804DB002008700120D2
:10AC70000D4908700D480078002804D00C48007871
:10AC8000401C0B4908700B480078002804D00A4883
:10AC90000088401C0849088000200149086070476E
:10ACA000408100404E0000204D0000204F00002059
:10ACB00050000020560000205200002010B504462D
:10ACC00001200F49086000200E49486001200E490C
:10ACD000C86004200B49086102208860C0030B494A
:10ACE00048607D20C0006043064940310860012172
:10ACF0000820FFF747FC0820FFF7C2FB10BD00004B
:10AD00000082004000850040008000400083004039
:10AD10008E498968002970D000218C4A91608C4945
:10AD20008969C8B28B49097904296CD008DC0029EB
:10AD30000FD001292FD002293FD0032971D14EE035
:10AD4000052976D006296ED014296DD01529F5D1A4
:10AD5000CEE0FF280ED100217E4A118011460A88DC
:10AD6000891D885401217B4A117111460988491CAB
:10AD700011800FE0AA280DD10021764A11801146DA
:10AD80000A88891D88541421724A11711146098854
:10AD9000491C1180D1E0FF280BD16E490A88891D1A
:10ADA000885402216B4A117111460988491C11808F
:10ADB00002E00021674A1171BFE0FF280BD165490D
:10ADC0000A88891D88540321624A11711146098835
:10ADD000491C118002E000215E4A1171ADE0FF289C
:10ADE0000DD15C490A88891D88540421594A117182
:10ADF00011460988491C118004E09FE003E000210E
:10AE0000544A117199E0FF280FD152490A88891DCF
:10AE1000885405214F4A117111460988491C118037
:10AE200006E086E005E030E04EE00021494A11717D
:10AE300083E048490A88891D8854891F09880729A1
:10AE40001DD10621434A117111460988491E921DE0
:10AE5000515C0902921F1388921DD25C11433D4A36
:10AE6000518011464988C82902DD0021117106E090
:10AE700038494988002902D10821364A11713549DB
:10AE80000988491C334A118057E032490A88891DD4
:10AE90008854891F498801290CD100212D4A11713C
:10AEA0000121517111460988491C2B4A118000214A
:10AEB000284A118027494988491E264A518011464F
:10AEC0000988491C118038E0AA280DD121490A8837
:10AED000891D885415211F4A117111460988491C82
:10AEE00011800A21518002E000211A4A117124E0E8
:10AEF00018490A88891D8854891F498801290ED15B
:10AF00000021144A117101221249C031CA73C0399B
:10AF10000988491C104A118000210E4A11800D49F0
:10AF20004988491E0B4A518011460988491C1180E5
:10AF300003E00021074A117100BF06E00349496A96
:10AF4000002902D00021014A5162704700210040CF
:10AF5000002500404C0600204200002008B50020DB
:10AF60000423062205210090072001F073F8042035
:10AF700007494860C001486000210220FFF78AFAB3
:10AF8000022001218140034A116000BF08BD00007A
:10AF90000023004000E100E00BE00278084BDA619A
:10AFA000401C00BF074AD269012AFBD10022054B91
:10AFB000DA610A464B1E99B2002AEED170470000B2
:10AFC000002500400021004030B47446641E2578FE
:10AFD000641CAB4204D3635D5B00E31830BC1847CC
:10AFE0001D46F8E710B50346002003E00C5C1C5436
:10AFF000441CA0B29042F9DB10BD000070B50246BF
:10B000000020002302210CE0C4B2555C6C402346B2
:10B010000404240E5D00044E755B6C4020464C1CFD
:10B02000E1B20A29F0DB70BD64C9010000200549C6
:10B03000086001208107086000BF024800680028FE
:10B04000FBD07047000100400C48008CC0B20128C2
:10B0500012D10A48808C0007000F00280CD1074845
:10B06000806AF0210840402806D10448C06A0840A0
:10B07000002801D1012070470020FCE7C00F00F03C
:10B080001948008CC0B201282CD11748808C0007C9
:10B09000000F002826D11448806AF02108400028BB
:10B0A00006D11148C06A0840002801D1012070472C
:10B0B0000D48806AF0210840102806D10A48C06A6D
:10B0C0000840002801D10120F1E70748806AF021FB
:10B0D0000840302806D10448C06A0840002801D141
:10B0E0000120E4E70020E2E7C00F00F01348008CE5
:10B0F000C0B201281FD11148808C0007000F002822
:10B1000019D10E48806AF0210840A02806D10B48CA
:10B11000C06A0840002801D1012070470748806AB2
:10B12000F0210840D02806D10448C06A0840002811
:10B1300001D10120F1E70020EFE70000C00F00F08F
:10B1400008B5A5201D49C861FFF770FF00F02EFE6D
:10B15000FFF7E4FC3220FFF7B1FDFFF7FFFE082008
:10B1600001210A4600231F46009354000C439D0012
:10B170002C433D022C43009D2D042C4305252D0717
:10B1800007263602AD198600AC5100BF00BF400152
:10B190000B49C86004220B493D20000300F0B4F8BD
:10B1A00001200949086007E000F08AFF074800789D
:10B1B000002801D100F056FCF6E700000005004031
:10B1C0000005005035000020008000404C000020A9
:10B1D0000246002003E000231354431C98B2884227
:10B1E000F9DB7047F0B5059C55000D439E003543D3
:10B1F00026023543069E36043543052636070727C3
:10B200003F02F6198700F551F0BD7CB505460C46A6
:10B210000020009023460246014601902846FFF791
:10B22000E1FF7CBD1CB504460020009003460122CE
:10B23000114601902046FFF7D5FF1CBD012181403A
:10B24000014AD16070470000000500500121814093
:10B25000014A9160704700000005005002210B4A2E
:10B26000516000BF0A4909680029FBD0074988607E
:10B2700000BF074909680029FBD00021034A51603B
:10B2800000BF034909680029FBD0704700E5014071
:10B2900000E4014002780A70704770B504460D461C
:10B2A0001646002304E0E918E018FFF7F3FF5B1CE3
:10B2B000B342F8D370BD0000F0B50A468107890F8C
:10B2C00005468D432B46CF00FF26BE401D68B54383
:10B2D0002C46CE001546B5402C190125084E756048
:10B2E00000BF084D2D68002DFBD01C6000BF054D30
:10B2F0002D68002DFBD00025014E7560F0BD0000CB
:10B3000000E5014000E40140F0B505460E46174651
:10B31000002404E0315D2819FFF7CEFF641CBC4215
:10B32000F8D3F0BDF3B593B0202201A81399FFF72D
:10B3300059FE6846007C0007000F12906846407C6A
:10B3400085116846407C20210840401110906846D5
:10B35000407CC006C00E119000200F900E901298F5
:10B360000300FFF731FE06042CFDFCFBFAF9022D69
:10B3700005DA11980F2802DD01200F900DE21098D8
:10B38000002812D1A800F8490858F8490860084672
:10B3900000680678002E01D0701EC6B26946487C4F
:10B3A000202108436946487406E0119E6946487C9E
:10B3B000202188436946487401200E90EDE16846DB
:10B3C000407C20210840002802D001200F90E4E1B9
:10B3D000002D7DD1E6480678002E01D0701EC6B241
:10B3E000A800E4490858E4490860E448405D704317
:10B3F000C4B2E2494A5DE0490968081909A9FFF7A2
:10B400004CFFDB480078002801D009A800E0DC48A8
:10B4100007466846007F82210840002802D0387A1B
:10B4200069460877797A68464177B97A8177C07F2B
:10B4300080210840002802D0F87A6946C87708A819
:10B440000078FF2803D008A80078FC2810DACC4840
:10B45000017B08A80170CA48417B08A84170C84810
:10B46000817B08A88170C648C17B08A8C1700FE025
:10B4700008A80078FD280BD0C148417B08A841707E
:10B48000BF48817B08A88170BD48C17B08A8C170F6
:10B49000BC48017868460175BA48417868464175EC
:10B4A000B848817868468175B648C1786846C175E4
:10B4B000B448017968460176B248417968464176D8
:10B4C000B048817968468176AE48C179684600E027
:10B4D00062E0C176002409E0395D2046103001AAFF
:10B4E000105C814200D005E0601CC4B2A348405DFE
:10B4F000A042F1DC00BFA148405DA04245DDA2486A
:10B50000405D9B490978884206DC00209849087014
:10B5100099480068FFF7A2FE954909780901964A03
:10B5200012688818102205A9FFF7EEFE072407E02D
:10B5300001A920461030085C91490855601CC4B22E
:10B54000102CF5DB8A480078401C894908700846B1
:10B550000078401EC6B204E01EE1DFE0CFE0CDE09F
:10B56000B7E08748007A00118849085C884908706C
:10B570008348007AC007C00F864908706946487C36
:10B580002021084369464874A0E06946487C202190
:10B5900088436946487499E0012D03D0022D01D0FB
:10B5A000032DF1D1102406E001A8005DFF2800D092
:10B5B00003E0601CC4B2202CF6DB00BF202C02DBB1
:10B5C00001200F90E9E0A800674908586749086022
:10B5D000084600680678002E01DD701EC6B2A8007D
:10B5E00064490858644908606448405D7043C4B2C7
:10B5F00062494A5D60490968081909A9FFF74DFECB
:10B6000000240AE009A8015D2046103001AA105C60
:10B61000814200D005E0601CC4B25848405DA042A1
:10B62000F0DC00BF5548405DA04249DD4F4800684E
:10B6300000785549495D884206DB6946487C2021EF
:10B6400088436946487441E04848006800784B499F
:10B65000495D4843C4B249494A5D474909680819E8
:10B6600005A9FFF751FE45494A5D43490968081994
:10B6700009A9FFF712FE002406E009A8005DFF28D3
:10B6800000D005E0601CC4B23C48405DA042F4DC40
:10B6900000BF3A48405DA0420BDD344800680078A6
:10B6A000401C324909680870304800680078401E24
:10B6B000C6B26946487C202108436946487405E0C3
:10B6C0006946487C202188436946487401200E90D1
:10B6D00063E0A8002449085824490860A8002549C7
:10B6E00008582549086008460068FFF7B7FD0020A4
:10B6F0001E490968087002200E9000BF4DE000242A
:10B7000007E01F48015D01AA204610301154601C5B
:10B71000C4B2102CF5DB04200E903EE0102406E0AD
:10B7200001A8005DFF2800D003E0601CC4B2202CFB
:10B73000F6DB00BF202C02DB01200F9011E06846F1
:10B74000007F02210840002801D001200F9008A8A6
:10B750000078FF2803D008A80078FC2801DA01202F
:10B760000F9005200E9018E00C000020080000202B
:10B7700002000020280600202C00002020000020CD
:10B780003C0600204BC901001C0000205BC90100E1
:10B79000300000203100002000BF00BF14980028B6
:10B7A0007ED00F9800287BD10E9801281FD16946C2
:10B7B000487CE021084004462046304369464874EE
:10B7C000A80051490858514908605148405D7043EC
:10B7D000C4B24F494A5D4D490968081905A9FFF7E8
:10B7E0005CFD002D3CD102206946C87638E00E98F9
:10B7F000022812D1A8004449085844490860444826
:10B80000425D05A941480068FFF747FD6946487C4D
:10B81000C02108406946487422E00E98042803D1EC
:10B8200002206946C8761BE00E98052818D1072427
:10B8300007E02046103001A9085C36490855601C15
:10B84000C4B2102CF5DB3348007A00113249085C91
:10B85000324908702F48007AC007C00F304908707D
:10B860000221684641712F480178684681712D4850
:10B8700041786846C1712B48817868460172294831
:10B88000C17868464172002181722248C1796846B8
:10B89000C1720021017341738173C173002400E000
:10B8A00030E021480078C001204909788901084327
:10B8B000C4B26846007C2043694608741F240020F7
:10B8C0000D9006E001A8005D0D9948400D90601EA6
:10B8D000C4B2002CF6D101A90D9808551320FFF72A
:10B8E000B5FC202201A91248FFF77CFB05220021AC
:10B8F0000A48007800F09AF802200E4908700020EB
:10B900000D49087015B0F0BD280600202C0000205D
:10B91000200000203C0600205BC901003000002010
:10B9200031000020350000203B0000203C000020BA
:10B93000680000203300002032000020154816491E
:10B940004862164888621648C86116480862002096
:10B95000C862012008630020486113488861022002
:10B9600048630846406B8007800F022804D10F48C7
:10B97000C8630F4888630BE00748406B8007800F5F
:10B98000012805D1FF200449C863FF2008308863DF
:10B9900070470000E7C2C3C400150040C8C7C6C551
:10B9A000E7E7E7E74343434320200401FFFF0000AC
:10B9B000211001000020094908600949086101209F
:10B9C0000849086100BF064800690028FBD0002034
:10B9D00003490861012004490870704700120040C3
:10B9E00000110040001000406300002000B5024636
:10B9F0000B46FFF7DFFF0120084908600846006892
:10BA00001021084305490860054883600261012050
:10BA10000449486002200449087000BD001200403B
:10BA200000150040001000406300002010B50346E0
:10BA30000C46FFF7BFFF0120064908600648C360B7
:10BA400004618260012005490860032004490870F0
:10BA500010BD000000120040001500400010004022
:10BA60006300002010B5BC480078002875D0BB48A2
:10BA700000780028FAD0FFF79DFF0020B649087033
:10BA8000B749087009E00020B649B54A12788854D1
:10BA9000B3480078401CB2490870B14800782028AB
:10BAA000F1DBB1480078401CC0B2AF4908700528EE
:10BAB00001DB00200870AC480078002801D101208B
:10BAC00000E00020A94908700020A6494870A84855
:10BAD00000788870A6484078C870A54880780871BA
:10BAE000A348C0784871A1480078002801D0802080
:10BAF00000E000209B4988719E48C079C8710020F1
:10BB0000087248728872C872954908709A4800781D
:10BB1000002805D008460078802108439049087025
:10BB200096480078002805D08D48007840210843C9
:10BB30008B4908708A4800788A4908730020487346
:10BB40008873C8738B48007A0C210840002805D000
:10BB5000042837D008287DD168E0D9E088480078EB
:10BB6000002818D086480078401E602108437D498F
:10BB7000487383480078401E0007000E784908701B
:10BB800080490968764A1278881810227549103160
:10BB9000FFF783FB15E0602072494873002070496D
:10BBA00008700AE000216E48007810306D4A115488
:10BBB0006B480078401C6A49087069480078102872
:10BBC000F0DB6AE070480078002818D06E480078F2
:10BBD000401EA0210843634948736B480078401E0B
:10BBE0000007000E5E490870664909685C4A1278D1
:10BBF000881810225B491031FFF74FFB15E0A02099
:10BC0000584948730020564908700AE000215448FA
:10BC100000781030534A115451480078401C504964
:10BC200008704F4800781028F0DB36E0574800785D
:10BC300000281AD055480078401EE02108434949A1
:10BC4000487352480078401E0007000E44490870AF
:10BC50004C4900E020E00968414A12788818102217
:10BC600040491031FFF719FB15E0E0203D494873CA
:10BC700000203B4908700AE0002139480078103064
:10BC8000384A115436480078401C35490870344809
:10BC900000781028F0DB00E000BF00BF1F20304913
:10BCA000087000203A4908700DE02E482C490978A8
:10BCB000405C374909784840354908702848007881
:10BCC000401E27490870264800780028EDD13048EA
:10BCD00000782449224A127888541320FFF7B6FAD4
:10BCE0002248007800280AD000202049087001204E
:10BCF00028490870284908700020284908704F22F8
:10BD0000002127480078FFF791FE0120254908709F
:10BD100022480078012807DB00201F4908701F49CE
:10BD200008700220204908701F480078012812DDA1
:10BD30001320FFF783FA4F210020FFF757FE012061
:10BD40001849087000200C4908700C490870114906
:10BD500008701549087010BD4D000020310000200A
:10BD600060000020680000203A0000203900002018
:10BD7000350000203C0600203B0000203C00002055
:10BD8000030000202C0000200400002005000020FB
:10BD900061000020330000204F00002050000020F0
:10BDA0003000002032000020340000203EB5012089
:10BDB0000007006998490860012000074069401E9B
:10BDC0009649086008460068401E93490968484340
:10BDD0009349086091480068801E8F49096848436C
:10BDE0008F4948608D480068C01E8B4909684843E8
:10BDF0008B49886089480068001F87490968484363
:10BE00008749C8608448006884490968484385496F
:10BE100008600B22694683480068FFF73EFA6846CF
:10BE200000788149097888423BD1684640787E494C
:10BE30004978884235D1684680787B49897888423C
:10BE40002FD16846C0787849C978884229D1684698
:10BE5000007975490979884223D168464079724949
:10BE6000497988421DD1684680796F49897988422D
:10BE700017D16846C0796C49C979884211D16846A2
:10BE8000007A6949097A88420BD16846407A664946
:10BE9000497A884205D16846807A6349897A88421E
:10BEA00038D05F4800685F49086008460068FFF7BF
:10BEB000D5F95B4840685B49086008460068FFF7B1
:10BEC000CDF9574880685749086008460068FFF771
:10BED000C5F95348C0685349086008460068FFF731
:10BEE000BDF94D4800684D49096848434D4908600F
:10BEF00008460068FFF7B2F94748006847490968F3
:10BF00004843484908600B22474946480068FFF704
:10BF1000FBF92FE0424800684249086010221146B0
:10BF200040480068FEF728FE404908703C484068D9
:10BF30003C490860102211463A480068FEF71CFE92
:10BF40003B49087036488068364908601022202135
:10BF500034480068FEF710FE364908703048C06863
:10BF600030490860102220212E480068FEF704FEA8
:10BF7000314908702D48007800280FD02848006803
:10BF80002849086029480078401E0005050C09680A
:10BF9000481910222949FFF780F909E0002505E03A
:10BFA0002748405D25494855681C85B2102DF7DBB0
:10BFB0002248007A00112349085C234908701F4871
:10BFC000007AC007C00F21490870002420E0FF203C
:10BFD000210161181E4A50542101611889184870C6
:10BFE0002101611889188870210161188918C870A9
:10BFF0002101611889184871FF212001201880183B
:10C000008171FF202101611889180871601C84B2B8
:10C010003C2CDCDB3EBD000024000020280000207A
:10C02000280600202C00002040C90100020000204A
:10C030000300002004000020050000203C06002032
:10C040004BC901005BC90100300000203100002015
:10C0500004020020F8B507460C4615461E46204649
:10C06000FFF7E0F800213046FFF7CFF81048C46032
:10C070004661069800280DD03846FFF7D3F8002116
:10C080002846FFF7C2F80A48056187600120084981
:10C090004031C86207480649486204200860012010
:10C0A000054988600860002004498860F8BD0000E8
:10C0B00000250040005027000020004000210040E3
:10C0C00010B5F848407900287ED00020F649087065
:10C0D000F6490880FF20F64908800020F1494871A0
:10C0E000F449C8700620F44908700EE0F148C078A1
:10C0F000EC49891DF04A1278895C4840ED49C870C6
:10C10000ED480078401CEC490870EA480088EA498C
:10C1100009788842EADCE748C078002854D1E14831
:10C12000807BFF28FAD1DF48C07BFF28F6D1DD48AD
:10C13000007CFF28F2D1DB48407CFE28EED1D948B4
:10C14000007DDC498870084680780007000F0828C9
:10C150007AD1084680780011D849087008460078DE
:10C16000002873D00020D649087051E0FF20D44940
:10C1700009780A018918D34A5054D14909780A012B
:10C180008918D04A89184870CD4909780A01891858
:10C19000CC4A89188870CA4909780A018918C94A9D
:10C1A0008918C8700020C64909780A018918C54A4B
:10C1B000891848710021C248007802018018C14ADC
:10C1C00080188171002000E011E1BD4909780A0161
:10C1D0008918BC4A89180871BB4908700FE0FF2113
:10C1E000B748007802018018B64A8018C01DB64AC8
:10C1F00012788154B4480078401CB3490870B248A2
:10C2000000780A28EBDBAE480078401CAC49087087
:10C21000AB4800783C28A9DB4F210020FFF7E6FB64
:10C220000120AA490870A049087000209F49088091
:10C23000A2480078282148439D4908800120A4494C
:10C240000870A4494860D2E00FE0FFE7012096495A
:10C250000870002095490880052095490880012034
:10C260009B4908709B494860C1E09248807800076C
:10C27000000F0A28E7D18F488078C011002853D0DA
:10C280008C4880784006400F8C490870084600783A
:10C2900000281DD1002190484171017181718148B0
:10C2A000407D8D49203908707E48807D48707D48EA
:10C2B000C07D88707B48007EC8704F210020FFF74A
:10C2C00095FB0120814908700220814908708EE0A9
:10C2D000002181484171017181717248407D7E4920
:10C2E000203908706F48807D48706E48C07D887026
:10C2F0006C48007EC8704F210020FFF777FB0120BB
:10C3000072490870684908700020684908806B48C5
:10C310000078282148436649088002206C4908704B
:10C3200001206C49486062E00320694908700A20D6
:10C330006A49487068482038007888706648203814
:10C340004078C87064482038807808716248203886
:10C35000C0784871002088716148C079C871002098
:10C36000087248728872C8720C205E4908701320E7
:10C370005D49087012E04B48801D5B490978405CBC
:10C380005649584A1278885456480078401C5549F6
:10C39000087055480078401C53490870514800788F
:10C3A0002028E8DB00204F49087001204E49087022
:10C3B0000DE04A484C490978405C4A4909784840B0
:10C3C0004849087048480078401C4749087046486A
:10C3D00000782028EDDB43480078404908700522AA
:10C3E00000210420FFF722FB0020384908702D4867
:10C3F000C030C07B002853D000212A48C030C17310
:10C40000BA38FEF7FBFD394908802648007C000257
:10C410002449497C084335490988884272D121481A
:10C42000007A3349097888426CD11E48407A3049F5
:10C430004978884266D11B48807A2D49897888429C
:10C4400060D11848C07A2A49C97888425AD115481B
:10C45000407B092856D11348007B264908700020EC
:10C46000254908700FE0244900200856C206D20E64
:10C4700001219140214A116000BF1F480078401CF3
:10C4800040B21D4908701C48002141561929EADDB7
:10C490005A201B49C86100214868804700BFFEE759
:10C4A00030E000004C060020560000205200002022
:10C4B00054000020420000205B00002059000020B2
:10C4C0005700002004020020580000203200002005
:10C4D0004C000020002000402006002068000020C2
:10C4E0003C0600205C0000205D0000205E00002073
:10C4F00035000020010200200000002080E100E063
:10C5000000050040FC480088FC490988884203DA9D
:10C51000FB48007901287DD10020FA490870F649CE
:10C520000880FF20F5490880F7480078012872D17B
:10C53000FFF740FAF548F6490860FF2009680870DF
:10C54000F3480068401CF2490860FF200968087041
:10C55000EF480068401CEE490860FF200968087039
:10C56000EB480068401CEA490860FF200968087031
:10C57000E7480068401CE6490860FF200968087029
:10C58000E3480068401CE249086000200968087020
:10C59000DF480068401CDE49086000200968087018
:10C5A000DB480068401CDA49086000200968087010
:10C5B000D7480068401CD6490860D648007809680A
:10C5C0000870D3480068401CD1490860D1484078C1
:10C5D00009680870CE480068401CCD490860CD4805
:10C5E000807809680870CA480068401CC84908601B
:10C5F000C848C07809680870C5480068401CC4492C
:10C600000860002009680870C1480068401CC049E3
:10C61000086001E06FE1F9E0002009680870BC489B
:10C620000068401CBA490860002009680870B848D2
:10C630000068401CB64908600020B7490880B74927
:10C64000087089E0B548007801014018B449085CD9
:10C65000FF287CD0B148007801014018B049085C3F
:10C66000AB4909680870AA480068401CA8490860DE
:10C67000AA48007801014018A94940184078A44907
:10C6800009680870A2480068401CA1490860A348D6
:10C69000007801014018A249401880789C49096837
:10C6A00008709B480068401C994908609B480078C6
:10C6B000010140189A494018C078954909680870E6
:10C6C00093480068401C9249086094480078010132
:10C6D00040189349401840798D49096808708C4882
:10C6E0000068401C8A4908608C48007801014018A5
:10C6F0008B49401880798649096808708448006829
:10C70000401C8349086000208649087016E0834871
:10C7100000780101401882494018C01D81490978FC
:10C72000405C7B490968087079480068401C78497A
:10C7300008607C480078401C7A4908707948007885
:10C740000A28E4DB74480088401C73490880734859
:10C750000078401C71490870704800783C2800DA65
:10C7600070E70120704908600020704988606A48BD
:10C7700000880005000C68490880084600880830D9
:10C780006B49088008460088001260498871684833
:10C790000078C871604800880F305F490880002029
:10C7A000644908700620644908700DE057486249E2
:10C7B0000978405C5F49097848405E4908705E48E6
:10C7C0000078401C5C4908705B4800785249098831
:10C7D0008842EBDB574800784D49096808704C489F
:10C7E0000068401C4A4908604B480088401C4A4980
:10C7F0000880464846490860474801884448006820
:10C80000FEF7CAFB00204049087074E03E480078FB
:10C81000022870D1FFF7CEF80120434908600020BC
:10C8200042498860FF203949087048708870C87094
:10C8300008710020487188712020C871354800783F
:10C84000087234484078487232488078887231489B
:10C85000C078C87200200873487302208873284883
:10C860000079012811D1042225491A3927480F30AF
:10C87000FEF7B8FB14222249103924481330FEF782
:10C88000B1FB00211E48017104E014211F480F3044
:10C89000FEF79EFC282020490880002025490870CA
:10C8A0000620254908700DE0184823490978405CA6
:10C8B0002049097848401F4908701F480078401CEB
:10C8C0001D49087014480088401E1B490978884299
:10C8D000EADC184801780D482030C1710E48018803
:10C8E0000A48FEF759FB0020074908700021044858
:10C8F00041710171817110BD52000020540000206F
:10C9000020060020560000204C0000201C070020BC
:10C9100048000020350000203E0000205700002085
:10C9200004020020580000200020004000210040A8
:10C93000400000205A0000205B000020FD000000A5
:10C94000AAAA01030501234567898EE7E7E7E7E720
:10C950004F05006100000000000000D8ECF0F4F882
:10C96000FC0004000000C1C081C1400101C3C0033C
:10C97000800241C201C6C006800741C70005C1C58B
:10C9800081C4400401CCC00C800D41CD000FC1CF4B
:10C9900081CE400E000AC1CA81CB400B01C9C0093B
:10C9A000800841C801D8C018801941D9001BC1DBDB
:10C9B00081DA401A001EC1DE81DF401F01DDC01D8B
:10C9C000801C41DC0014C1D481D5401501D7C017AB
:10C9D000801641D601D2C012801341D30011C1D1BB
:10C9E00081D0401001F0C030803141F10033C1F3FB
:10C9F00081F240320036C1F681F7403701F5C0358B
:10CA0000803441F4003CC1FC81FD403D01FFC03F4A
:10CA1000803E41FE01FAC03A803B41FB0039C1F93A
:10CA200081F840380028C1E881E9402901EBC02B9A
:10CA3000802A41EA01EEC02E802F41EF002DC1ED8A
:10CA400081EC402C01E4C024802541E50027C1E7AA
:10CA500081E640260022C1E281E3402301E1C021BA
:10CA6000802041E001A0C060806141A10063C1A3BA
:10CA700081A240620066C1A681A7406701A5C0658A
:10CA8000806441A4006CC1AC81AD406D01AFC06F4A
:10CA9000806E41AE01AAC06A806B41AB0069C1A93A
:10CAA00081A840680078C1B881B9407901BBC07BDA
:10CAB000807A41BA01BEC07E807F41BF007DC1BD8A
:10CAC00081BC407C01B4C074807541B50077C1B7AA
:10CAD00081B640760072C1B281B3407301B1C071BA
:10CAE000807041B00050C190819140510193C0537A
:10CAF000805241920196C056805741970055C1958A
:10CB000081944054019CC05C805D419D005FC19F49
:10CB1000819E405E005AC19A819B405B0199C05939
:10CB2000805841980188C04880494189004BC18B99
:10CB3000818A404A004EC18E818F404F018DC04D89
:10CB4000804C418C0044C184818540450187C047A9
:10CB5000804641860182C042804341830041C181B9
:10CB60008180404084CB010000000020680000006C
:10CB70002CA10100ECCB010068000020A01A0000ED
:10CB800048A10100000000000000000000000000BB
:10CB90000200002003000020040000200500002007
:10CBA00010102020101010100000000000000000E5
:10CBB000000000000000020000FFFFFFF90000007D
:10CBC0000000000000000000000000000000000065
:10CBD0000000000000000000FF0000000000000056
:0CCBE00000000000000000010024F40030
:040000050001A0C195
:00000001FF
