:020000040000FA
:10000000300F0020250100003701000079070000B3
:1000100000000000000000000000000000000000E0
:100020000000000000000000000000003B01000094
:1000300000000000000000003D0100003F01000042
:10004000B1080000E9080000490C0000590900004F
:100050007509000000000000D50600000502000040
:10006000A50A0000110C00002D0C00002109000061
:1000700041010000050900001903000021020000F1
:10008000ED0D00003D090000CD08000091070000C3
:1000900091090000AD090000C9090000E509000050
:1000A000010A00001D0A000000000000000000001E
:1000B0000000000000000000000000000000000040
:1000C00070477047704700005354303355626F6F6C
:1000D00074563033000000000000000052464E33DA
:1000E0003330324D4256302E312E310000000000A8
:1000F0000348854600F074F80048004721120000CC
:10010000300F0020401E00BF00BF00BF00BF00BF77
:1001100000BF00BF00BF00BF00BF00BF00BFF1D1E4
:1001200070470000074802680F210A430260064832
:10013000804706480047FEE7FEE7FEE7FEE7FEE7EA
:10014000FEE7000024050040810A0000F1000000E5
:1001500030B50B46014600202022012409E00D465F
:10016000D5409D4205D31D469540491B25469540E7
:1001700040191546521E002DF1DC30BD03460B43DD
:100180009B0703D009E008C9121F08C0042AFAD24D
:1001900003E00B78491C0370401C521EF9D27047D3
:1001A000D2B201E00270401C491EFBD2704700220F
:1001B000F6E710B513460A4604461946FFF7F0FF66
:1001C000204610BD30B504460020034600E05B1C0D
:1001D000934203D2E05CCD5C401BF8D030BD000000
:1001E000064C0125064E05E02046E36807C82B4370
:1001F00098471034B442F7D3FFF77EFF8C17000006
:100200009C17000010B50448C069A52802D1034915
:10021000C869804710BD00000005004040A00100F3
:1002200010B50448C069A52802D10349C86B8047AE
:1002300010BD00000005004040A00100F8B50746D1
:100240000D46022400BF164800780028FBD0072284
:1002500039461448FFF792FF042213491148801CC5
:10026000FFF78CFF8B200F49C871002008720846E9
:10027000447228128872CD72214608310948801CC8
:1002800000F06CFF0646311220460A30054A115430
:10029000401C16540E21104600F0CEFBF8BD0000A5
:1002A00041000020CE0300202800002070B5054644
:1002B0000C4600BF154800780028FBD007222946CD
:1002C0001348FFF75BFF042212491148801CFFF717
:1002D00055FFE879802108430D49C8710020087254
:1002E0000846447221460831801C00F037FF06465C
:1002F000311220460A30064A1154401C1654401C44
:10030000C1B2104600F098FB70BD00004100002013
:10031000CE0300202800002010B50448C069A5289D
:1003200002D10349886B804710BD000000050040E2
:1003300040A00100FEB5CE480078002805D000207E
:10034000CB49087000F0A0FDFEBDCA480078002827
:100350007ED0C94C00252046407AC8490870214605
:10036000C64800780A30085C07020A46C349097883
:100370000B31515C0F43C14801780831901C00F0EB
:10038000EDFEB84200D001250422BB49891CBCA067
:10039000FFF718FF002802D10120BB490880042282
:1003A000B549891CB948FFF70DFF002804D0B648AD
:1003B0000088002800D10125002D05D00020AD497E
:1003C0000870B1490880BFE7E57900200090092D49
:1003D00006D00A2D1CD00C2D7BD00D2D7AD122E118
:1003E000A9480088002800D03BE101F073F800F034
:1003F00027FD00212046FFF759FF0120A44908707E
:100400000020A4490880A4490870A449087028E184
:100410009F480078012800D023E19B4800880028ED
:1004200000D01EE101F056F8607A042870DD207BD0
:100430000002617B084397490988884268D10020FF
:100440009749087001900025002600BF607A00E0FF
:100450000BE1001FC2B201AB21460E31914800F002
:1004600047F90646B01C36D0012823D0022843D1D4
:100470008948007869460979401887490870084614
:100480000178884800F0B0FD002804D18249087046
:10049000681CC5B20DE0002D08D17E4800880028F8
:1004A00004D07C480088401E7A4908800020C04360
:1004B000009022E0002D08D176480088002804D062
:1004C00074480088401E734908800020C043009093
:1004D00013E057E0C4E07048007869460979401895
:1004E0006D4908706B480088401C6A4908800021EB
:1004F0002046FFF7DBFE00E000BF00BF002E00D06B
:1005000014E066480078002803D0002001900DE038
:1005100032E00098401C05D15E4801882046FFF774
:100520008DFE03E06846007900288FD100BF684641
:100530000079002825D1002E23D1564800880012CA
:100540005949887253480078C87202212046FFF743
:10055000ADFE52480078002813D0FF20F53000F09F
:10056000A1FE00BFBFF34F8F50485149C860BFF391
:100570004F8F00BF00BFFEE7464801882046FFF7C7
:100580005DFE6EE000F0DCFFA07A002806D00128B6
:1005900012D002281ED0032838D129E0454800F0A7
:1005A000FBFD3649087008460278521C41493E4816
:1005B0000A30FFF7E3FD2DE03F4800F0EDFD2F4945
:1005C000087008460278521C3B4937480A30FFF74A
:1005D000D5FD1FE0394800F0DFFD284908700846C6
:1005E0000278521C354930480A30FFF7C7FD11E048
:1005F000334800F0D1FD2149087008460278521CAA
:100600002F4929480A30FFF7B9FD03E000201B49B4
:10061000087000BF00BF19480078401CC1B22046D6
:10062000FFF744FE1DE0002019490870214800F042
:10063000B3FD124908700C20E07100201A4988723D
:100640000E480278921C1B4917480B30FFF796FDA5
:100650000A480078401CC1B22046FFF727FE00E0A0
:1006600000BF00BF00200349087000BF6CE6000017
:10067000320000204B0000201E0200200F0000204E
:10068000FFFFFFFB000000002000002028000020EA
:10069000090000200200002045000020000000208A
:1006A000460000207E050020CE0300200400FA054D
:1006B00000ED00E054000020C800000068000020A9
:1006C000DC00000001480249086070473546526E60
:1006D0000006014010B50448C069A52802D10349AD
:1006E0008869804710BD00000005004040A001005F
:1006F00070B504460D46002130E01C480078904259
:1007000003DB19700120C04370BD18480078285CD5
:10071000174E36788E19A05514480078401C134E99
:100720003070134800780818205C0D2803D1012090
:10073000104E307010E00E4800780818205C0A282F
:1007400007D10C480078002806D0481C18700020FB
:10075000DAE70020074E3070481CC1B20448007828
:100760000818D828C9D30020C043CDE74600002090
:10077000450000200E00002010B50448C069A528DF
:1007800003D10D214903C868804710BD0005004012
:1007900010B50448C069A52802D10349C86880473C
:1007A00010BD00000005004080A00100C206D20E6E
:1007B00001219140014A11607047000080E100E092
:1007C00010B5002819DA1A4A03071B0F083B9B08CB
:1007D0009B00D2588307DC0EFF23A3409A438B076C
:1007E0001B0E8407E40EA3401A43114B0407240F89
:1007F000083CA408A4001A5118E00E4A03231B0267
:10080000D21883089B00D2588307DC0EFF23A34035
:100810009A438B071B0E8407E40EA3401A43054B33
:10082000032424021B198408A4001A5110BD0000DF
:100830001CED00E000E100E010B5002819DA1A4ACA
:1008400003071B0F083B9B089B00D2588307DC0E55
:10085000FF23A3409A438B071B0E8407E40EA3409B
:100860001A43114B0407240F083CA408A4001A5192
:1008700018E00E4A03231B02D21883089B00D258AB
:100880008307DC0EFF23A3409A438B071B0E8407CC
:10089000E40EA3401A43054B032424021B198408C9
:1008A000A4001A5110BD00001CED00E000E100E0C2
:1008B00010B50448C069A52802D1034908688047DB
:1008C00010BD00000005004040A0010010B5044824
:1008D000C069A52802D103498868804710BD00007F
:1008E0000005004080A0010010B50448C069A5289B
:1008F00002D103494868804710BD00000005004050
:1009000040A0010010B50448C069A52802D10349E0
:10091000486B804710BD00000005004040A001006A
:1009200010B50448C069A52802D10349C86A8047A8
:1009300010BD00000005004040A0010010B50448B3
:10094000C069A52802D103494868804710BD00004E
:100950000005004080A0010010B50448C069A5282A
:1009600002D10349C868804710BD0000000500405F
:1009700040A0010010B50448C069A52802D1034970
:100980000869804710BD00000005004040A001003C
:1009900010B50448C069A52802D1034908698047F9
:1009A00010BD00000005004080A0010010B5044803
:1009B000C069A52802D103494869804710BD0000DD
:1009C0000005004080A0010010B50448C069A528BA
:1009D00002D103498869804710BD0000000500402E
:1009E00080A0010010B50448C069A52802D10349C0
:1009F000C869804710BD00000005004080A00100CC
:100A000010B50448C069A52802D10349086A804787
:100A100010BD00000005004080A0010010B5044892
:100A2000C069A52802D10349486A804710BD00006B
:100A30000005004080A0010000220B4B1A7000BF8F
:100A40000A4A1278002AFBD00122074B1A700022B2
:100A5000064B1A70064A11700022064B1A70064A9D
:100A60001278064BDA6170474300002041000020F5
:100A7000400000203F000020CE0300200025004061
:100A800010B500F09BFB002805D0034803494860DF
:100A9000C8130349886110BDDFFF07C0000500408F
:100AA000006C004010B50548C069A52803D1044971
:100AB000086A804701E000F005F810BD000500401D
:100AC00040A0010043490968002979D00121424A28
:100AD000D160116041490988414A914204DA3F4995
:100AE0000988491C3D4A11803E49098800292BDDAF
:100AF0003C490988491E3B4A118011460988002952
:100B000022D1394A11703949496A00291CD0002183
:100B1000364A51620F21364A116035498031896960
:100B2000C8B2334980318969C8B231498031896995
:100B3000C8B22F4980318969C8B22D49803189698D
:100B4000C8B20021294A91602A49098800290BDD91
:100B500028490988491E274A118011460988002919
:100B600002D10121244A1170244909781E2904DA8E
:100B700022490978491C214A1170214909786429C0
:100B80001FDD00211E4A11701E4909781E4A127885
:100B9000914207D000211D4A11701B490978194A5A
:100BA000117013E01749097800290FD11749097806
:100BB00005290BDA15490978491C144A117005E01A
:100BC00007E00F490978491C0D4A11700021014ABC
:100BD00011607047408100400080004036000020D6
:100BE000FFFF0000380000204400002000210040EA
:100BF0008024004030000020320000204E00002001
:100C0000330000204F00002050000020470000204B
:100C100010B50448C069A52802D10349486A804735
:100C200010BD00000005004040A0010010B50448C0
:100C3000C069A52802D10349886A804710BD000019
:100C40000005004040A0010010B50548C069A52876
:100C500003D104498868804701E000F005F810BD21
:100C60000005004040A0010070B53CE032488069BA
:100C7000C4B200F08BFA3148007800282DD13048FA
:100C80003049097844542F480078401C2D49087099
:100C9000084600780A2818DD2948007A0002284909
:100CA000497A40180C3085B226480078A8420CDBFF
:100CB000012022490870002022490870224908803A
:100CC00022480078401C21490870D8211D4800782E
:100CD000FFF73EFA1B48017002E000201C49087033
:100CE00000201C4988601B4880680028BED1194834
:100CF000C06900281ED000201649C8611648007837
:100D0000002817D014480078401E13490870134873
:100D10000078401C114908700F480078002803D162
:100D200001200F49087005E00E480C490978405C25
:100D30000149C86170BD0000002500404B00002043
:100D40001E02002044000020380000200700002080
:100D50004200002000210040400000203F00002011
:100D600041000020CE03002070B5054600F068F871
:100D700000BF174800780028FBD0012015490870F3
:100D80000020154908801549087015490870AA20E7
:100D9000144908704870042213491248801CFFF758
:100DA000EDF91048857189200E49C871002008723C
:100DB000487208210B48801C00F0D0F9044620122C
:100DC00008498872CC720C210648FFF735FE70BDC9
:100DD0004100002009000020020000204500002002
:100DE00000000020CE0300202800002010B5044899
:100DF000C069A52802D103490868804710BD0000DA
:100E00000005004080A0010030B47446641E2578BF
:100E1000641CAB4204D3635D5B00E31830BC18472D
:100E20001D46F8E702E008C8121F08C1002AFAD1DF
:100E30007047002001E001C1121F002AFBD170475A
:100E400070B500240120000705690D2464032946BC
:100E50002046FFF77DF9012109074969081A86B282
:100E60000CE00D204003844205D30648844202D2A0
:100E7000204600F041FA6419701E86B2002EF0DCA4
:100E8000002070BDFFCF030010B50D2040030068A7
:100E90000E49084001214907884215D10C48C06914
:100EA00000280DD1082000F01FFAC82000F0FAF940
:100EB000082001218140074A916000BF00F07CFAC0
:100EC0000D21490348688047002010BD0000FE2F17
:100ED0000005004000050050F8B505460E46002408
:100EE00000952BE0287843B22046E10F09184910FD
:100EF0004900611A0BD1D8B200F03CF80346581CE7
:100F000002D01807070E16E00020C043F8BDD8B283
:100F100000F030F80346581C0AD038461843C7B2D0
:100F2000009807700098401C0090701EC6B202E046
:100F30000020C043EAE7601CC4B26D1C002ED1D172
:100F40000020E3E710B5002409E02046C206D20ED7
:100F500001219140064A116000BF601C44B2192C67
:100F6000F3DD00F01BFA00F0BFFAFFF7AAF810BD9E
:100F700080E100E001460022D243302905DB392917
:100F800003DC0846303840B27047612905DB66292A
:100F900003DC0846573840B2F6E7412905DB46290D
:100FA00003DC0846373840B2EEE71046ECE710B5F0
:100FB00003460024C82901DD601E10BD002204E0A4
:100FC000985C0019C4B2501CC2B2481E9042F7DCB3
:100FD000E043401CC4B2481E185CA04201D100206E
:100FE000EBE70020C043E8E7FEB504460D460020CD
:100FF000C0430190002C01D10198FEBD20783A2811
:1010000001D00198F9E7681EC5B2641C082D0ADDFD
:10101000681E205C0A2808D1A81E205C0D2804D177
:10102000A81EC5B201E00198E7E72846E90F0918B4
:101030004D1029462046FFF74FFF401C01D1019873
:10104000DBE729462046FFF7B2FF401C01D101989B
:10105000D3E700200190E0780300FFF7D5FE063BC0
:10106000041617182E70207800280DD12079FF283B
:101070000AD100200190042233490D20400300F0E2
:101080007FF90120314908705AE059E058E0207892
:1010900002280ED1207900022D49088008460078E8
:1010A0000002617940182A49088001202949087006
:1010B00002E000202749087042E0207900066179AB
:1010C00009044018A17909024018E1794018224921
:1010D000086035E01F48007800282FD06078009025
:1010E00000980002A178401880B200902778184834
:1010F0000088010400980E18F0193D210903884268
:1011000003D80D204003864203D20020C043019043
:1011100016E00D20400386420BD1082F09DD042282
:10112000211D0948FFF72AF8FF220421201DFFF79F
:1011300037F82278211D304600F022F900E000BF88
:1011400000BF019859E700000A00002000000020BD
:10115000180000200100002014000020F0B5024615
:101160000B460020002400210BE0C5B2565C754000
:101170002C4605126600044FBE5B754028464D1C88
:10118000A9B29942F1DBF0BD8C15000003200149A2
:1011900008807047380000200146002005E00A5C06
:1011A000002A00D103E0421CD0B21428F7DB00BFB4
:1011B000142801D10022CA74704700001748008C1F
:1011C000C0B2012827D11548808C0007000F22D11A
:1011D0001248806AF021084205D11048C06A0842CE
:1011E00001D1012070470D48806AF0210840102885
:1011F00005D10A48C06A084201D10120F2E7074838
:10120000806AF0210840302805D10448C06A0842AD
:1012100001D10120E6E70020E4E70000C00F00F064
:1012200008B500241B48C069A52801D1FFF72CFE92
:10123000FFF788FE00F084F91648C0695A2800D1EB
:10124000012400201349C8610120000700691249E8
:10125000086001200007406908600020042302465E
:101260000521009000F0DAF8002C04D00B4800783B
:10127000FFF77AFD00BFFEF725FF0820012181401E
:10128000074AD16000BF03E0FFF71CFAFFF752F8EE
:10129000FAE70000000500402400002001020020C1
:1012A0000005005001B505E00098401E009003487D
:1012B000FEF728FF00980028F6D108BDE7030000DC
:1012C00010B58A0005231B07072424021B1984007C
:1012D0001A5110BD01210522120707231B02D21843
:1012E0008300D1507047000001218140014AD16044
:1012F000704700000005005002210B4A516000BFFA
:101300000A4909680029FBD00749886000BF0749DE
:1013100009680029FBD00021034A516000BF03493E
:1013200009680029FBD0704700E5014000E4014056
:10133000F0B50A468107890F05468D432B46CF003D
:10134000FF26BE401D68B5432C46CE001546B5406D
:101350002C190125084E756000BF084D2D68002D21
:10136000FBD01C6000BF054D2D68002DFBD0002573
:10137000014E7560F0BD000000E5014000E4014051
:10138000F0B505460E461746002404E0315D2819E5
:10139000FFF7CEFF641CBC42F8D3F0BD0020054926
:1013A000086001208107086000BF0248006800282B
:1013B000FBD070470001004010B50820FFF7F6F998
:1013C000012010494860C860801E0F4988600220D3
:1013D000FFF7ECF901200D494860C86000200C4976
:1013E0008860401E0B49886000200B490860082077
:1013F000FFF77AFF02200521090707221202891848
:10140000086210BD008000400083004000200040C2
:10141000002100400023004000250040F8B50746A9
:101420000C4615461E462046FFF754FF0021304665
:10143000FFF746FF1A48C4604661069800280DD0A1
:101440003846FFF747FF00212846FFF739FF1448C9
:1014500005618760012012494031C8621148104976
:1014600048620420086001200F498860086000205D
:101470000E498860C8614862401E0D49886084201A
:10148000486000210220FFF7D7F9022001218140A6
:10149000084A116000BF012007490870F8BD00002C
:1014A000002500400050270000200040002100409F
:1014B0000023004000E100E04100002010B50B4691
:1014C000002104E004785C54401C4C1CE1B29142C1
:1014D000F8DB10BD002002490880024908707047FF
:1014E000300000203200002010B50020C0430F491A
:1014F000886004200E49086100208860486001204F
:1015000000040A4948600B4809494031086001203D
:101510000949C860086001210820FFF751F9082037
:1015200001218140054A116000BF10BD00830040C9
:1015300000850040102700000080004000E100E02E
:1015400010B501200C49087014220C490C48FFF713
:10155000B5FF00200949C87414220A49084814300C
:10156000FFF7ACFF00200749C874042206493D205C
:101570000003FFF7A3FF10BD4A0000205400002025
:10158000C8A0010068000020280000200000C1C0A1
:1015900081C1400101C3C003800241C201C6C0062F
:1015A000800741C70005C1C581C4400401CCC00CFF
:1015B000800D41CD000FC1CF81CE400E000AC1CABF
:1015C00081CB400B01C9C009800841C801D8C018AF
:1015D000801941D9001BC1DB81DA401A001EC1DE2F
:1015E00081DF401F01DDC01D801C41DC0014C1D41F
:1015F00081D5401501D7C017801641D601D2C0123F
:10160000801341D30011C1D181D0401001F0C0300E
:10161000803141F10033C1F381F240320036C1F62E
:1016200081F7403701F5C035803441F4003CC1FCFE
:1016300081FD403D01FFC03F803E41FE01FAC03ABE
:10164000803B41FB0039C1F981F840380028C1E8EE
:1016500081E9402901EBC02B802A41EA01EEC02E2E
:10166000802F41EF002DC1ED81EC402C01E4C0241E
:10167000802541E50027C1E781E640260022C1E23E
:1016800081E3402301E1C021802041E001A0C0604E
:10169000806141A10063C1A381A240620066C1A62E
:1016A00081A7406701A5C065806441A4006CC1ACFE
:1016B00081AD406D01AFC06F806E41AE01AAC06ABE
:1016C000806B41AB0069C1A981A840680078C1B8AE
:1016D00081B9407901BBC07B807A41BA01BEC07E2E
:1016E000807F41BF007DC1BD81BC407C01B4C0741E
:1016F000807541B50077C1B781B640760072C1B23E
:1017000081B3407301B1C071807041B00050C1908D
:10171000819140510193C053805241920196C0562D
:10172000805741970055C19581944054019CC05CFD
:10173000805D419D005FC19F819E405E005AC19ABD
:10174000819B405B0199C059805841980188C048ED
:1017500080494189004BC18B818A404A004EC18E2D
:10176000818F404F018DC04D804C418C0044C1841D
:10177000818540450187C047804641860182C0423D
:10178000804341830041C181818040409C1700001B
:101790000000002054000000240E000000000000A3
:1017A0000200000000000000000000000000000037
:1017B0000000000000000000000000000000000029
:1017C00078563412000000000024F400F4010000F8
:1017D0000000000000000000000000000001000008
:1017E00000000000000000000000000000000000F9
:04000005000000F106
:00000001FF
